:100000000C9462000C948A000C948A000C948A0070
:100010000C948A000C948A000C948A000C948A0038
:100020000C948A000C948A000C948A000C941F048F
:100030000C948A000C948A000C948A000C948A0018
:100040000C947D030C948A000C94ED030C94C7036C
:100050000C948A000C948A000C948A000C948A00F8
:100060000C948A000C948A000000000023002600F3
:10007000290000000000240027002A0000000000E2
:10008000250028002B0004040404040404040202D4
:100090000202020203030303030301020408102007
:1000A0004080010204081020010204081020000012
:1000B0000008000201000003040700000000000027
:1000C0000000200511241FBECFEFD8E0DEBFCDBF5A
:1000D00011E0A0E0B1E0E0E4F3E102C005900D9290
:1000E000A033B107D9F722E0A0E3B1E001C01D922F
:1000F000A930B207E1F710E0C2E6D0E004C02197D2
:10010000FE010E949809C136D107C9F70E947D05FA
:100110000C949E090C940000CF92DF92EF92FF9214
:10012000DC01A03282E0B807D4F5A53BB10514F09C
:10013000A4EBB0E04091070228E830E0241B31092D
:1001400047FD3395220F331F220F331F6901330FF1
:10015000EE08FF084091080228E532E0241B31092F
:1001600047FD3395220F331F220F331F032E000C40
:10017000440B550B2C193D094E095F09B7FF02C00E
:10018000B0E0A0E00E94220824EB30E040E050E024
:100190000E94F807C20ED31EE41EF51ED601E091A0
:1001A0000602EC3080F52091070288E890E0821B7F
:1001B000910927FD9395880F991F880F991FA817FC
:1001C000B90784F02091080288E592E0821B91092A
:1001D00027FD9395880F991F880F991FA817B907B6
:1001E0000CF4CD010297880F991F4FB7F8942E2F6A
:1001F00030E0F901EE0FFF1FE20FF31FEF51FE4F4A
:10020000928381834FBFFF90EF90DF90CF9008954E
:1002100090E0FC01E255FF4F2491FC01E656FF4FB0
:100220003491FC01EA57FF4FE491EE23C9F02223F9
:1002300039F0233001F1A8F4213019F1223029F1ED
:10024000F0E0EE0FFF1FE458FF4FA591B4918FB778
:10025000F894EC91611126C030953E233C938FBFFA
:1002600008952730A9F02830C9F0243049F780914B
:1002700080008F7D03C0809180008F778093800005
:10028000DFCF84B58F7784BDDBCF84B58F7DFBCF87
:100290008091B0008F778093B000D2CF8091B00072
:1002A0008F7DF9CF3E2BDACFCF93DF9390E0FC0127
:1002B000E656FF4F24918A579F4FFC018491882373
:1002C000D1F090E0880F991FFC01EE58FF4FA591E7
:1002D000B491FC01E458FF4FC591D49161110EC057
:1002E0009FB7F8948C91E22FE0958E238C93288110
:1002F000E223E8839FBFDF91CF9108958FB7F894F1
:10030000EC91E22BEC938FBFF6CF3FB7F89480913E
:10031000400190914101A0914201B091430126B565
:10032000A89B05C02F3F19F00196A11DB11D3FBF2D
:10033000BA2FA92F982F8827BC01CD01620F711DFC
:10034000811D911D42E0660F771F881F991F4A95F6
:10035000D1F708958F929F92AF92BF92CF92DF9282
:10036000EF92FF924B015C010E9485016B017C01C1
:100370000E9485016C197D098E099F09683E7340B2
:1003800081059105A8F321E0821A9108A108B1081E
:1003900088EEC80E83E0D81EE11CF11C8114910484
:1003A000A104B10429F7FF90EF90DF90CF90BF90A8
:1003B000AF909F908F900895AF92BF92CF92DF92AF
:1003C000EF92FF920F931F93CF93DF936C017B010A
:1003D0008B01040F151FEB015E01AE18BF08C0179B
:1003E000D10759F06991D601ED91FC910190F0810E
:1003F000E02DC6010995892B79F7C501DF91CF91D1
:100400001F910F91FF90EF90DF90CF90BF90AF9032
:100410000895FC01538D448D252F30E0842F90E00A
:10042000821B930B541710F0CF96089501970895EF
:10043000FC01918D828D981761F0A28DAE0FBF2FB8
:10044000B11D5D968C91928D9F5F9F73928F90E00E
:1004500008958FEF9FEF0895FC01918D828D98177D
:1004600031F0828DE80FF11D858D90E008958FEFBA
:100470009FEF0895FC01918D228D892F90E0805C83
:100480009F4F821B91098F739927089584E491E00F
:100490000E943A0221E0892B09F420E0822F08957E
:1004A00080E090E0892B29F00E94460281110C9493
:1004B00000000895FC01A48DA80FB92FB11DA35A07
:1004C000BF4F2C91848D90E001968F739927848F74
:1004D000A689B7892C93A089B1898C918370806497
:1004E0008C93938D848D981306C00288F389E02D38
:1004F00080818F7D80830895EF92FF920F931F93E9
:10050000CF93DF93EC0181E0888F9B8D8C8D9813C6
:100510001AC0E889F989808185FF15C09FB7F894D2
:10052000EE89FF896083E889F9898081837080641E
:1005300080839FBF81E090E0DF91CF911F910F9169
:10054000FF90EF900895F62E0B8D10E00F5F1F4F78
:100550000F731127E02E8C8D8E110CC00FB607FC87
:10056000FACFE889F989808185FFF5CFCE010E9415
:100570005A02F1CFEB8DEC0FFD2FF11DE35AFF4F27
:10058000F0829FB7F8940B8FEA89FB8980818062A3
:10059000CFCFCF93DF93EC01888D8823B9F0AA8960
:1005A000BB89E889F9898C9185FD03C0808186FD2E
:1005B0000DC00FB607FCF7CF8C9185FFF2CF80817D
:1005C00085FFEDCFCE010E945A02E9CFDF91CF9196
:1005D0000895FC0101900020E9F73197AF01481B15
:1005E000590BBC0184E491E00C94DC018F929F9242
:1005F000AF92BF920F931F93CF93DF93CDB7DEB728
:10060000A1970FB6F894DEBF0FBECDBF19A242303E
:1006100008F44AE08E010F5D1F4F842E912CB12CFF
:10062000A12CA50194010E942A08E62FB901CA0154
:10063000EA30F4F4E05DD801EE938D01232B242BF6
:10064000252B79F790E080E0109719F0CD010E94FA
:10065000E902A1960FB6F894DEBF0FBECDBFDF91C1
:10066000CF911F910F91BF90AF909F908F90089561
:10067000E95CE1CFCF92DF92EF92FF92CF93DF93CD
:100680006B017C016DE284E491E00E947C02EC014C
:1006900066277727CB016C197D098E099F094AE0EF
:1006A0000E94F6028C0F9D1FDF91CF91FF90EF907B
:1006B000DF90CF900895CF93DF930E94E902EC0181
:1006C00087E191E00E94E9028C0F9D1FDF91CF919D
:1006D0000895CF93DF9397FF0CC00E943A03EC017B
:1006E00087E191E00E94E9028C0F9D1FDF91CF917D
:1006F00008954AE00E94F602F2CF1F920F920FB6C1
:100700000F9211242F933F938F939F93AF93BF9397
:1007100080913C0190913D01A0913E01B0913F013B
:1007200030913B0123E0230F2D3758F50196A11D91
:10073000B11D20933B0180933C0190933D01A09318
:100740003E01B0933F018091400190914101A09101
:100750004201B09143010196A11DB11D809340015A
:1007600090934101A0934201B0934301BF91AF9197
:100770009F918F913F912F910F900FBE0F901F90DF
:10078000189526E8230F0296A11DB11DD2CF1F9206
:100790000F920FB60F9211242F933F934F935F93B5
:1007A0006F937F938F939F93AF93BF93EF93FF9339
:1007B00084E491E00E945A02FF91EF91BF91AF91C2
:1007C0009F918F917F916F915F914F913F912F9169
:1007D0000F900FBE0F901F9018951F920F920FB69B
:1007E0000F9211242F938F939F93EF93FF93E09198
:1007F0005401F09155018081E0915A01F0915B0123
:1008000082FD1BC0908180915D018F5F8F7320916D
:100810005E01821741F0E0915D01F0E0EC5BFE4F7C
:10082000958F80935D01FF91EF919F918F912F9113
:100830000F900FBE0F901F9018958081F4CF1F92DC
:100840000F920FB60F9211242F933F934F935F9304
:100850006F937F938F939F93AF93BF93CF93DF93C8
:10086000EF93FF9380913001C0910502D0E087FFA4
:1008700024C01092850010928400809130018F5F17
:100880008093300180913001082E000C990B8C1759
:100890009D0724F4809130018C30C4F18091840054
:1008A00090918500049680349C4908F47AC0809128
:1008B000840090918500049676C080913001082EC6
:1008C000000C990B8C179D07C4F6E09130018E2F18
:1008D000EE0F990BFC01EE0FFF1FE80FF91FEF5110
:1008E000FE4F808186FFC9CFE09130018E2FEE0F41
:1008F000990BFC01EE0FFF1FE80FF91FEF51FE4FA0
:10090000808160E08F730E940801B7CF209184003E
:1009100030918500E09130018E2FEE0F990BFC0194
:10092000EE0FFF1FE80FF91FEF51FE4F81819281FB
:10093000820F931F9093890080938800E09130018B
:100940008E2FEE0F990BFC01EE0FFF1FE80FF91F22
:10095000EF51FE4F808186FF11C0E09130018E2F54
:10096000EE0F990BFC01EE0FFF1FE80FF91FEF517F
:10097000FE4F808161E08F730E940801FF91EF912B
:10098000DF91CF91BF91AF919F918F917F916F91A7
:100990005F914F913F912F910F900FBE0F901F903D
:1009A000189580E49CE990938900809388008FEFEC
:1009B00080933001E3CFCF92DF92EF92FF920F93BB
:1009C0001F93E82FF92F05C00150110921093109A2
:1009D00061F1908196239417B9F305C00150110974
:1009E0002109310911F1908196239413F7CFC12C7D
:1009F000D12CE12CF12C0AC08FEFC81AD80AE80AD2
:100A0000F80A0C151D052E053F0579F08081862317
:100A1000841791F36C2D7D2D8E2D9F2D1F910F919D
:100A2000FF90EF90DF90CF90089560E070E080E05D
:100A300090E01F910F91FF90EF90DF90CF9008957D
:100A4000109247011092460188EE93E0A0E0B0E0DA
:100A50008093480190934901A0934A01B0934B01C0
:100A600089E091E0909345018093440185EC90E00A
:100A7000909351018093500184EC90E09093530146
:100A80008093520180EC90E0909355018093540143
:100A900081EC90E0909357018093560182EC90E0B6
:100AA000909359018093580186EC90E090935B01FC
:100AB00080935A0110925D0110925E0110925F01C5
:100AC00010926001809105028C3098F491E0980FAB
:100AD000909305028093060290E0FC01EE0FFF1F49
:100AE000E80FF91FEF51FE4F88EB9BE09283818363
:100AF00008958FEF809306020895789484B58260FC
:100B000084BD84B5816084BD85B5826085BD85B5B1
:100B1000816085BD80916E00816080936E0010922F
:100B200081008091810082608093810080918100AA
:100B3000816080938100809180008160809380003B
:100B40008091B10084608093B1008091B000816099
:100B50008093B00080917A00846080937A008091C5
:100B60007A00826080937A0080917A00816080931D
:100B70007A0080917A00806880937A001092C10098
:100B800061E08BE00E94540160E08CE00E9454011F
:100B9000E0915401F091550182E08083E091500191
:100BA000F09151011082E0915201F09153018FECCC
:100BB000808310925C01E0915801F091590186E028
:100BC0008083E0915601F09157018081806180839C
:100BD000E0915601F0915701808188608083E09117
:100BE0005601F0915701808180688083E091560121
:100BF000F091570180818F7D8083809106028C3037
:100C000008F051C061E088E00E9454018091060222
:100C1000282F30E0F901EE0FFF1FE20FF31FEF5115
:100C2000FE4F9081907C9860908310920702109202
:100C300008022CE0622F0E948C09829FB0011124CF
:100C400030E020E0AB01420F531FFA01EE0FFF1F0F
:100C5000E40FF51FEF51FE4F908196FD16C02F5FF8
:100C60003F4F2C30310571F781110FC01092800079
:100C700082E0809381001092850010928400B19AE6
:100C800080916F00826080936F00E09106028E2F4A
:100C900090E0FC01EE0FFF1FE80FF91FEF51FE4F30
:100CA000808180648083C3E2D0E046EA242E40E065
:100CB000342E52E9A52E50E0B52E69E5462E512C72
:100CC000612C712C70E0872E70E0972E60E08BE035
:100CD0000E94080162E070E080E090E00E94AA01BA
:100CE00061E08BE00E940801CE010197F1F760E01E
:100CF0008BE00E940801F1016491F5018491E82FD5
:100D0000F0E0EE0FFF1FE859FF4F8591949100E44A
:100D100012E42FE030E0462F0E94DB046B017C01DF
:100D2000C114D104E104F10439F0FFEFCF1ADF0A56
:100D3000EF0AFF0A8FE0F822C0923101D09232010F
:100D4000E0923301F0923401C114D104E104F104C2
:100D500071F460E08CE00E94080161E070E080E0E6
:100D600090E00E94AA0160E08CE00E945401C7015B
:100D7000B60195958795779567950E94930826E922
:100D800033E44BE05DE30E94F70820E030E040E010
:100D90005FE30E94F7080E945B0870933A0160933A
:100DA0003901072E000C880B990B97FF56C00E9443
:100DB0003A038AE191E00E945B0362E370E080E025
:100DC00090E00E94AA0181E02091390130913A011E
:100DD0002F3031050CF080E090910001882309F458
:100DE00040C09923F1F10E94A007A30192010E9443
:100DF000F807655A7F4F8F4F9F4F6093350170936F
:100E0000360180933701909338010E9469038091E5
:100E10003501909136010E948C008DE191E00E9495
:100E20005B038091000191E089278093000188E2B3
:100E300091E00E945B0368EE73E080E090E00E9426
:100E4000AA018114910409F441CF0E94460288232B
:100E500009F43CCF0E94000039CF4AE00E94F6021C
:100E6000A8CF11E0911769F3882359F30E94A007D6
:100E7000A30192010E94F807609335017093360137
:100E800080933701909338010E9469038091350166
:100E9000909136010E948C008DE191E00E945B03ED
:100EA000809100018127C1CF8F929F92AF92BF9214
:100EB000CF92DF92EF92FF92CF93DF93EC016881A4
:100EC00079818A819B81611571058105910521F4E4
:100ED00064E279ED8BE597E02DE133EF41E050E0FE
:100EE0000E94F80749015A019B01AC01A7EAB1E44D
:100EF0000E9417086B017C01ACEEB4EFA5019401D0
:100F00000E942508C60ED71EE81EF91EF7FE06C071
:100F100081E0C81AD108E10880E8F80AC882D982BD
:100F2000EA82FB82C701B6019F77DF91CF91FF90E4
:100F3000EF90DF90CF90BF90AF909F908F900895EB
:100F40008F929F92AF92BF92CF92DF92EF92FF92D9
:100F5000609101017091020180910301909104015F
:100F6000611571058105910521F464E279ED8BE548
:100F700097E02DE133EF41E050E00E94F80749018E
:100F80005A019B01AC01A7EAB1E40E9417086B016A
:100F90007C01ACEEB4EFA50194010E942508C60EB9
:100FA000D71EE81EF91EF7FE06C081E0C81AD10858
:100FB000E10880E8F80AC0920101D0920201E092B3
:100FC0000301F0920401C701B6019F77FF90EF90F3
:100FD000DF90CF90BF90AF909F908F9008956093D7
:100FE000010170930201809303019093040108951D
:100FF000052E97FB1EF400940E940F0857FD07D0A2
:101000000E942A0807FC03D04EF40C940F08509558
:101010004095309521953F4F4F4F5F4F08959095E4
:101020008095709561957F4F8F4F9F4F08950E94D7
:101030004C08A59F900DB49F900DA49F800D911D0D
:1010400011240895B7FF0C9417080E941708821BFB
:10105000930B0895A1E21A2EAA1BBB1BFD010DC024
:10106000AA1FBB1FEE1FFF1FA217B307E407F50758
:1010700020F0A21BB30BE40BF50B661F771F881F34
:10108000991F1A9469F760957095809590959B01CA
:10109000AC01BD01CF010895A29FB001B39FC00173
:1010A000A39F700D811D1124911DB29F700D811D94
:1010B0001124911D08950E9462086894B1110C9446
:1010C000F10808950E94D60888F09F5798F0B92F2C
:1010D0009927B751B0F0E1F0660F771F881F991F6D
:1010E0001AF0BA95C9F714C0B13091F00E94F00817
:1010F000B1E008950C94F008672F782F8827B85F27
:1011000039F0B93FCCF3869577956795B395D9F7C4
:101110003EF490958095709561957F4F8F4F9F4FCE
:101120000895E89409C097FB3EF4909580957095DA
:1011300061957F4F8F4F9F4F9923A9F0F92F96E923
:10114000BB279395F695879577956795B795F11198
:10115000F8CFFAF4BB0F11F460FF1BC06F5F7F4F35
:101160008F4F9F4F16C0882311F096E911C0772347
:1011700021F09EE8872F762F05C0662371F096E850
:10118000862F70E060E02AF09A95660F771F881F1F
:10119000DAF7880F9695879597F9089557FD905837
:1011A000440F551F59F05F3F71F04795880F97FB2B
:1011B000991F61F09F3F79F08795089512161306E5
:1011C0001406551FF2CF4695F1DF08C01616170614
:1011D0001806991FF1CF8695710561050894089549
:1011E000E894BB2766277727CB0197F908950E94DB
:1011F0000A090C947B090E946D0938F00E94740959
:1012000020F0952311F00C9464090C946A091124C0
:101210000C94F1080E94CE0870F3959FC1F3950FCE
:1012200050E0551F629FF001729FBB27F00DB11D6A
:10123000639FAA27F00DB11DAA1F649F6627B00DFA
:10124000A11D661F829F2227B00DA11D621F739FE3
:10125000B00DA11D621F839FA00D611D221F749FF1
:101260003327A00D611D231F849F600D211D822F38
:10127000762F6A2F11249F5750409AF0F1F088235F
:101280004AF0EE0FFF1FBB1F661F771F881F91508C
:101290005040A9F79E3F510580F00C9464090C94CE
:1012A000F1085F3FE4F3983ED4F386957795679510
:1012B000B795F795E7959F5FC1F7FE2B880F911DB6
:1012C0009695879597F9089597F99F6780E870E05C
:1012D00060E008959FEF80EC089500240A941616AC
:1012E000170618060906089500240A941216130614
:1012F000140605060895092E0394000C11F48823A2
:1013000052F0BB0F40F4BF2B11F460FF04C06F5FBD
:101310007F4F8F4F9F4F0895991B79E004C0991F0D
:10132000961708F0961B881F7A95C9F7809508953F
:10133000EE0FFF1F0590F491E02D0994F894FFCF74
:101340000101000000000000007C02DC010902C96C
:10135000023A0218022C020D0A00636D0072616EDF
:10136000644E756D62657200546F67676C6500004E
:00000001FF
